:100000000C9462000C948A000C948A000C948A0070
:100010000C948A000C948A000C948A000C948A0038
:100020000C948A000C948A000C948A000C948A0028
:100030000C948A000C948A000C948A000C948A0018
:100040000C944B020C948A000C94BB020C94950205
:100050000C948A000C948A000C948A000C948A00F8
:100060000C948A000C948A000000000023002600F3
:10007000290000000008000201000003040700003E
:1000800000000000000000000000250028002B00F8
:1000900000000000240027002A00040404040404D3
:1000A0000404020202020202030303030303010227
:1000B00004081020408001020408102001020408F6
:1000C0001020C70311241FBECFEFD8E0DEBFCDBF85
:1000D00011E0A0E0B1E0E6E4F8E002C005900D9286
:1000E000A631B107D9F721E0A6E1B1E001C01D9228
:1000F000AE3BB207E1F710E0C2E6D0E004C02197C2
:10010000FE010E941604C136D107C9F70E94ED0214
:100110000C9421040C94000090E0FC01E255FF4F88
:100120002491FC01E656FF4F8491882399F090E0DA
:10013000880F991FFC01E057FF4FA591B491FC0176
:10014000EA57FF4F859194918FB7F894EC91E22B89
:10015000EC938FBF0895833081F028F4813099F0BB
:100160008230A1F008958730A9F08830B9F084304A
:10017000D1F4809180008F7D03C0809180008F77C3
:1001800080938000089584B58F7702C084B58F7DF9
:1001900084BD08958091B0008F7703C08091B00036
:1001A0008F7D8093B0000895CF93DF93E7E7F0E071
:1001B0008491E3EBF0E0D491EFE9F0E0C491CC233B
:1001C00091F081110E94AB00EC2FF0E0EE0FFF1FC9
:1001D000E859FF4FA591B491EC91ED2381E090E0B7
:1001E00021F480E002C080E090E0DF91CF9108959B
:1001F0001F93CF93DF93282F30E0F901EE58FF4F84
:100200008491F901E255FF4FD491F901E656FF4F71
:10021000C491CC23C1F0162F81110E94AB00EC2FAA
:10022000F0E0EE0FFF1FEA57FF4FA591B4919FB783
:10023000F894111104C08C91D095D82302C0EC9190
:10024000DE2BDC939FBFDF91CF911F910895CF925A
:10025000DF92EF92FF920F931F93CF93DF936C0186
:100260007A018B01C0E0D0E0CE15DF0581F0D80126
:100270006D918D01D601ED91FC910190F081E02D01
:10028000C6010995892B11F02196EECF7E01C70199
:10029000DF91CF911F910F91FF90EF90DF90CF9062
:1002A0000895089580E090E00895FC01538D448DF9
:1002B000252F30E0842F90E0821B930B541710F011
:1002C000CF96089501970895FC01918D828D98171E
:1002D00061F0828DDF01A80FB11D5D968C91928D2A
:1002E0009F5F9F73928F90E008958FEF9FEF089527
:1002F000FC01918D828D981731F0828DE80FF11DF0
:10030000858D90E008958FEF9FEF0895FC01918D0A
:10031000228D892F90E0805C9F4F821B91098F7303
:100320009927089581E291E00E94860121E0892BBE
:1003300009F420E0822F0895FC01848DDF01A80FCD
:10034000B11DA35ABF4F2C91848D90E001968F73FD
:100350009927848FA689B7892C93A089B1898C911C
:10036000837080648C93938D848D981306C002886B
:10037000F389E02D80818F7D80830895EF92FF9235
:100380000F931F93CF93DF93EC0181E0888F9B8DB8
:100390008C8D981305C0E889F989808185FD26C078
:1003A000F62E0B8D10E00F5F1F4F0F731127E02EFD
:1003B0008C8DE8120CC00FB607FCFACFE889F989DA
:1003C000808185FFF5CFCE010E949C01F1CF8B8DFE
:1003D000FE01E80FF11DE35AFF4FF0829FB7F8943A
:1003E0000B8FEA89FB89808180620AC09FB7F894ED
:1003F000EE89FF896083E889F98980818370806450
:1004000080839FBF81E090E0DF91CF911F910F919A
:10041000FF90EF900895CF93DF93EC01888D8823B0
:10042000C9F0EA89FB89808185FD05C0A889B98961
:100430008C9186FD0FC00FB607FCF5CF808185FF3C
:10044000F2CFA889B9898C9185FFEDCFCE010E94AA
:100450009C01E7CFDF91CF91089580E090E0892B58
:1004600029F00E94920181110C94000008950097D8
:1004700069F0FC0101900020E9F73197AF01481BBA
:10048000590BBC0181E291E00C94270180E090E0DF
:1004900008950E941C041F920F920FB60F92112410
:1004A0002F933F938F939F93AF93BF9380911D01A1
:1004B00090911E01A0911F01B091200130911C016B
:1004C00023E0230F2D3720F40196A11DB11D05C097
:1004D00026E8230F0296A11DB11D20931C018093D5
:1004E0001D0190931E01A0931F01B09320018091E4
:1004F000180190911901A0911A01B0911B01019668
:10050000A11DB11D8093180190931901A0931A01A8
:10051000B0931B01BF91AF919F918F913F912F910C
:100520000F900FBE0F901F9018951F920F920FB64D
:100530000F9211242F933F934F935F936F937F9369
:100540008F939F93AF93BF93EF93FF9381E291E0DB
:100550000E949C01FF91EF91BF91AF919F918F916C
:100560007F916F915F914F913F912F910F900FBEAF
:100570000F901F9018951F920F920FB60F92112493
:100580002F938F939F93EF93FF93E0913101F0911D
:1005900032018081E0913701F091380182FD12C073
:1005A000908180913A018F5F8F7320913B01821778
:1005B00051F0E0913A01F0E0EF5DFE4F958F8093AE
:1005C0003A0101C08081FF91EF919F918F912F910E
:1005D0000F900FBE0F901F901895CF93DF93CDB75C
:1005E000DEB7A1970FB6F894DEBF0FBECDBF7894EB
:1005F00084B5826084BD84B5816084BD85B5826028
:1006000085BD85B5816085BD80916E0081608093D8
:100610006E00109281008091810082608093810041
:100620008091810081608093810080918000816051
:10063000809380008091B10084608093B1008091AC
:10064000B00081608093B00080917A0084608093D4
:100650007A0080917A00826080937A0080917A009B
:10066000816080937A0080917A00806880937A001C
:100670001092C10082E00E948C0083E00E948C00F6
:1006800084E00E948C0085E00E948C0086E00E943D
:100690008C0060E082E00E94F80060E083E00E944D
:1006A000F80060E084E00E94F80061E086E00E94CB
:1006B000F80061E085E00E94F8000BEC17E08AE0AA
:1006C000882E912CA12CB12C8091160190911701AC
:1006D000883C91050CF054C0C8010197F1F70E94C5
:1006E000D40061E0892B09F060E085E00E94F80009
:1006F0000E94D4006C01990FEE08FF08F7FE20C09D
:100700006DE281E291E00E94BE0122273327A90118
:100710002C193D094E095F0919A2CE0181967C0171
:10072000CA01B901A50194010E94F403605DF701BB
:1007300062937F01211531054105510589F715C0E7
:10074000A701960119A2CE0181967C01CA01B901C7
:10075000A50194010E94F403605DF70162937F019B
:10076000211531054105510589F7C7010E9437025E
:1007700042E050E062E171E081E291E00E942701F5
:1007800010921701109216010E942D029DCFE1E2F6
:10079000F1E01382128288EE93E0A0E0B0E084835F
:1007A0009583A683B78384E091E09183808385EC71
:1007B00090E09587848784EC90E09787868780EC2B
:1007C00090E0918B808B81EC90E0938B828B82EC1C
:1007D00090E0958B848B86EC90E0978B868B118EC6
:1007E000128E138E148E0895A1E21A2EAA1BBB1B23
:1007F000FD010DC0AA1FBB1FEE1FFF1FA217B307ED
:10080000E407F50720F0A21BB30BE40BF50B661F02
:10081000771F881F991F1A9469F7609570958095C6
:1008200090959B01AC01BD01CF010895EE0FFF1F14
:100830000590F491E02D099481E090E0F8940C94F7
:060840002104F894FFCF33
:1008460000000000BE01270155010B02860164016C
:0608560078010D0A00000C
:00000001FF
