:100000000C9472000C949A000C949A000C949A0030
:100010000C949A000C949A000C949A000C949A00F8
:100020000C949A000C949A000C949A000C949A00E8
:100030000C949A000C949A000C949A000C949A00D8
:100040000C94BD020C949A000C942D030C9407039D
:100050000C949A000C949A000C949A000C949A00B8
:100060000C949A000C949A00F505F505F505F50534
:10007000F505F505F505F505F505F505F505F505B0
:10008000F505F505F505F50500000000240027003D
:100090002A0000000000250028002B0000000000BE
:1000A00023002600290004040404040404040202BA
:1000B00002020202030303030303010204081020E7
:1000C00040800102040810200102040810200000F2
:1000D0000008000201000003040700000000000007
:1000E0000000890611241FBECFEFD8E0DEBFCDBFD0
:1000F00021E0A8E3B1E001C01D92A73FB207E1F7FC
:1001000011E0A0E0B1E0EAE7F2E102C005900D9253
:10011000A833B107D9F710E0C2E7D0E004C02197B7
:10012000FE010E941608C137D107C9F70E945F037C
:100130000C943B090C940000833081F028F481304A
:1001400099F08230A1F008958730A9F08830B9F095
:100150008430D1F4809180008F7D03C08091800035
:100160008F7780938000089584B58F7702C084B51F
:100170008F7D84BD08958091B0008F7703C08091FA
:10018000B0008F7D8093B0000895CF93DF93282F28
:1001900030E0F901E253FF4F8491F901E654FF4F3B
:1001A000D491F901EA55FF4FC491CC2391F081110C
:1001B0000E949C00EC2FF0E0EE0FFF1FE456FF4F73
:1001C000A591B491EC91ED2381E090E021F480E0E1
:1001D00002C080E090E0DF91CF9108951F93CF930C
:1001E000DF93282F30E0F901E253FF4F8491F901AA
:1001F000E654FF4FD491F901EA55FF4FC491CC2347
:10020000C1F0162F81110E949C00EC2FF0E0EE0F40
:10021000FF1FEE56FF4FA591B4919FB7F8941111AF
:1002200004C08C91D095D82302C0EC91DE2BDC93D6
:100230009FBFDF91CF911F910895CF93DF9390E0FF
:10024000FC01E654FF4F2491FC01EA55FF4F8491D5
:10025000882361F190E0880F991FFC01E857FF4F58
:10026000C591D491FC01EE56FF4FA591B491611157
:1002700009C09FB7F8948881209582238883EC91E8
:100280002E230BC0623061F49FB7F8948881322F1F
:10029000309583238883EC912E2B2C939FBF06C02F
:1002A0008FB7F894E8812E2B28838FBFDF91CF91F1
:1002B0000895CF92DF92EF92FF920F931F93CF9307
:1002C000DF936C017A018B01C0E0D0E0CE15DF0531
:1002D00081F0D8016D918D01D601ED91FC910190D5
:1002E000F081E02DC6010995892B11F02196EECF02
:1002F0007E01C701DF91CF911F910F91FF90EF9089
:10030000DF90CF900895089580E090E00895FC017B
:10031000538D448D252F30E0842F90E0821B930B6A
:10032000541710F0CF96089501970895FC01918D10
:10033000828D981761F0828DDF01A80FB11D5D9647
:100340008C91928D9F5F9F73928F90E008958FEFB5
:100350009FEF0895FC01918D828D981731F0828D69
:10036000E80FF11D858D90E008958FEF9FEF0895C0
:100370002FB7F8948091560190915701A0915801A0
:10038000B09159012FBF8093620190936301A093B4
:100390006401B09365018AE591E00E94AA0197FF8C
:1003A00026C02FB7F8948091560190915701A091E3
:1003B0005801B09159012FBF4091620150916301E2
:1003C0006091640170916501841B950BA60BB70BBE
:1003D00040915E0150915F016091600170916101F7
:1003E00084179507A607B707B0F28FEF9FEF089520
:1003F000FC01918D228D892F90E0805C9F4F821BA4
:1004000091098F73992708958AE591E00E94F80178
:1004100021E0892B09F420E0822F0895FC01848DCE
:10042000DF01A80FB11DA35ABF4F2C91848D90E01E
:1004300001968F739927848FA689B7892C93A089F9
:10044000B1898C91837080648C93938D848D981383
:1004500006C00288F389E02D80818F7D8083089516
:10046000EF92FF920F931F93CF93DF93EC0181E004
:10047000888F9B8D8C8D981305C0E889F9898081C0
:1004800085FD26C0F62E0B8D10E00F5F1F4F0F73FA
:100490001127E02E8C8DE8120CC00FB607FCFACFA6
:1004A000E889F989808185FFF5CFCE010E940E028F
:1004B000F1CF8B8DFE01E80FF11DE35AFF4FF08263
:1004C0009FB7F8940B8FEA89FB89808180620AC00C
:1004D0009FB7F894EE89FF896083E889F989808164
:1004E0008370806480839FBF81E090E0DF91CF9133
:1004F0001F910F91FF90EF900895CF93DF93EC0140
:10050000888D8823C9F0EA89FB89808185FD05C033
:10051000A889B9898C9186FD0FC00FB607FCF5CF6D
:10052000808185FFF2CFA889B9898C9185FFEDCFB5
:10053000CE010E940E02E7CFDF91CF91089580E0B7
:1005400090E0892B29F00E94040281110C94000094
:100550000895009769F0FC0101900020E9F73197B8
:10056000AF01481B590BBC018AE591E00C9459017D
:1005700080E090E008950E9436091F920F920FB616
:100580000F9211242F933F938F939F93AF93BF9319
:100590008091560190915701A0915801B091590155
:1005A0003091550123E0230F2D3720F40196A11D32
:1005B000B11D05C026E8230F0296A11DB11D209391
:1005C00055018093560190935701A0935801B09321
:1005D00059018091510190915201A0915301B09124
:1005E00054010196A11DB11D8093510190935201B8
:1005F000A0935301B0935401BF91AF919F918F91FC
:100600003F912F910F900FBE0F901F9018951F9242
:100610000F920FB60F9211242F933F934F935F9336
:100620006F937F938F939F93AF93BF93EF93FF93BA
:100630008AE591E00E940E02FF91EF91BF91AF9188
:100640009F918F917F916F915F914F913F912F91EA
:100650000F900FBE0F901F9018951F920F920FB61C
:100660000F9211242F938F939F93EF93FF93E09119
:100670006A01F0916B018081E0917001F09171014C
:1006800082FD12C09081809173018F5F8F732091E2
:100690007401821751F0E0917301F0E0E65AFE4FC9
:1006A000958F8093730101C08081FF91EF919F919D
:1006B0008F912F910F900FBE0F901F901895CF9391
:1006C000DF93CDB7DEB7A1970FB6F894DEBF0FBEAC
:1006D000CDBF789484B5826084BD84B5816084BDCB
:1006E00085B5826085BD85B5816085BD80916E00D0
:1006F000816080936E001092810080918100826001
:10070000809381008091810081608093810080913D
:1007100080008160809380008091B100846080932C
:10072000B1008091B00081608093B00080917A0028
:10073000846080937A0080917A00826080937A004E
:1007400080917A00816080937A0080917A0080683D
:1007500080937A001092C100E0916A01F0916B01E0
:1007600082E08083E0916601F09167011082E09160
:100770006801F09169018FEC808310927201E09121
:100780006E01F0916F0186E08083E0916C01F09141
:100790006D01808180618083E0916C01F0916D0139
:1007A000808188608083E0916C01F0916D0180818F
:1007B00080688083E0916C01F0916D0180818F7D74
:1007C000808361E082E00E941D0161E083E00E947D
:1007D0001D0162E084E00E941D0162E085E00E944C
:1007E0001D0162E086E00E941D0162E087E00E9438
:1007F0001D0161E088E00E941D0160E083E00E942D
:10080000EE0060E082E00E94EE0060E088E00E947E
:10081000EE0041E4E42E41E0F42E14E0812F0E942A
:10082000C500F7018130910519F49183808302C0DE
:10083000118210821F5FF2E0EF0EF11C183071F789
:100840002BEC222E27E0322E3AE0432E512C612C45
:10085000712C09E411E094E0F92E8F2D0E94C5005F
:10086000F8018130910519F49183808302C01182CF
:100870001082F3940E5F1F4FF8E0FF12EECF6091ED
:10088000490170914A01809141019091420168179C
:10089000790741F48AE591E00E94F80118161906DB
:1008A000B4F16BC140914B0150914C0180914301D7
:1008B000909144014817590769F320914D013091F7
:1008C0004E0180914501909146012817390711F397
:1008D00080914F0190915001E0914701F0914801C2
:1008E0008E179F07B9F2E1E0E09340017093420157
:1008F000609341015093440140934301309346017A
:10090000209345019093480180934701C3CF809184
:100910004001811132C10E94B801FC0197FD11C054
:100920008D32910509F489C1C0970A9708F485C1F1
:10093000EE32F10509F481C18AE591E00E94960149
:10094000EACF60E070E0CB010E94FB08653B7105D7
:1009500014F06856714070933F0160933E01C0905F
:100960003E01D0903F010D2C000CEE08FF08F7FE71
:1009700020C06DE28AE591E00E94300222273327F1
:10098000A9012C193D094E095F0919A28E010F5DBD
:100990001F4FCA01B901A30192010E94F407605DD3
:1009A000F80162938F01211531054105510589F741
:1009B00015C0A701960119A28E010F5D1F4FCA0134
:1009C000B901A30192010E94F407605DF8016293EE
:1009D0008F01211531054105510589F7C8010E9494
:1009E000A90282E191E00E94A902F1E0F0934001A6
:1009F00000913E0110913F01B801012E000C880BBF
:100A0000990B0E94BD0620E030E044EB51E40E94C7
:100A100089086B017C0120E030E0A9010E943109C6
:100A200020E030E040E05FE387FD05C0C701B6018C
:100A30000E941D0804C0C701B6010E941C080E9444
:100A4000FB080E94BD0620E030E044EB51E40E9428
:100A50001C0720913A0130913B0140913C0150919B
:100A60003D010E941D086B017C0120E030E044E361
:100A700053E40E94310918164CF420E030E044EBB6
:100A800053E4C701B6010E941C08EDCF20E030E01E
:100A900044E353ECC701B6010E94B60618165CF099
:100AA00020E030E044EB53E4C701B6010E941D088A
:100AB0006B017C01EBCFC0923A01D0923B01E092F6
:100AC0003C01F0923D0117FF02C060E001C061E00F
:100AD00083E00E94EE00B80117FF03C07195619595
:100AE0007109072E000C880B990B0E94BD0620E0AF
:100AF00030E044EB51E40E9489086B017C0120E066
:100B000030E0A9010E94310920E030E040E05FE3DD
:100B100087FD0DC0C701B6010E941D080E94FB0899
:100B200022E3269F6001279FD00C11240CC0C7012F
:100B3000B6010E941C080E94FB08E2E3E69F6001E8
:100B4000E79FD00C1124D0923901C0923801E12CDA
:100B5000F12CEC14FD048CF482E00E94C50061E0ED
:100B6000892B09F060E082E00E94EE00C10101974C
:100B7000F1F7FFEFEF1AFF0AECCF809140018823D5
:100B800009F458C020E030E044EB51E460913A01B0
:100B900070913B0180913C0190913D010E94890838
:100BA0006B017C0120E030E0A9010E94310920E0C6
:100BB00030E040E05FE387FD05C0C701B6010E9459
:100BC0001D0804C0C701B6010E941C080E94FB0852
:100BD000FB013796E031F10518F5EC5CFF4F809191
:100BE0004101909142010C941608892BA1F4809147
:100BF000430190914401892B71F4809145019091BA
:100C00004601892B41F48091470190914801892B3D
:100C100011F461E001C060E088E00E94EE0008C0CD
:100C200061E088E00E94EE0085E191E00E94A90267
:100C3000109240010E949F020CCE812C912C80E8E2
:100C4000A82E8FE3B82EC12CD12C760110E000E045
:100C5000E130F10569F1ED32F10539F1EE32F105DE
:100C600031F1CF01C0970A9718F5AAE0B0E0A701CB
:100C700096010E94DA076F01FF0FEE08FF08C60E0B
:100C8000D71EE81EF91EF0E3CF1AD108E108F108DB
:100C9000112371F02DEC3CEC4CEC5DE3C501B4018B
:100CA0000E941C074B015C0103C001E001C011E080
:100CB0008AE591E00E9496010E94B801FC01C0976C
:100CC0000A9730F2EE32F10519F411111FC0C0CFAE
:100CD000E130F10509F4BCCF002341F0F094E09439
:100CE000D094C094C11CD11CE11CF11C112349F00B
:100CF000C701B6010E94BD06A50194010E941C0710
:100D000023CEC701B6010E94BD061ECE0111E6CF5B
:100D1000EFCFEAE5F1E01382128288EE93E0A0E0E3
:100D2000B0E084839583A683B78384E091E09183C8
:100D3000808385EC90E09587848784EC90E09787AA
:100D4000868780EC90E0918B808B81EC90E0938B98
:100D5000828B82EC90E0958B848B86EC90E0978B75
:100D6000868B118E128E138E148E08950E94F806B3
:100D700008F481E00895E89409C097FB3EF490954B
:100D80008095709561957F4F8F4F9F4F9923A9F064
:100D9000F92F96E9BB279395F695879577956795F3
:100DA000B795F111F8CFFAF4BB0F11F460FF1BC037
:100DB0006F5F7F4F8F4F9F4F16C0882311F096E9CA
:100DC00011C0772321F09EE8872F762F05C0662378
:100DD00071F096E8862F70E060E02AF09A95660F31
:100DE000771F881FDAF7880F9695879597F90895EA
:100DF000990F0008550FAA0BE0E8FEEF161617062C
:100E0000E807F907C0F012161306E407F50798F093
:100E1000621B730B840B950B39F40A2661F0232BAC
:100E2000242B252B21F408950A2609F4A140A69528
:100E30008FEF811D811D08950E942F070C94A0073C
:100E40000E94920738F00E94990720F0952311F034
:100E50000C9489070C948F0711240C94D4070E94DA
:100E6000B10770F3959FC1F3950F50E0551F629F36
:100E7000F001729FBB27F00DB11D639FAA27F00DF3
:100E8000B11DAA1F649F6627B00DA11D661F829F1A
:100E90002227B00DA11D621F739FB00DA11D621FFF
:100EA000839FA00D611D221F749F3327A00D611D1C
:100EB000231F849F600D211D822F762F6A2F1124FE
:100EC0009F5750409AF0F1F088234AF0EE0FFF1F31
:100ED000BB1F661F771F881F91505040A9F79E3F88
:100EE000510580F00C9489070C94D4075F3FE4F31C
:100EF000983ED4F3869577956795B795F795E795DE
:100F00009F5FC1F7FE2B880F911D9695879597F9E6
:100F1000089597F99F6780E870E060E008959FEF7B
:100F200080EC089500240A94161617061806090680
:100F3000089500240A94121613061406050608954F
:100F4000092E0394000C11F4882352F0BB0F40F4D7
:100F5000BF2B11F460FF04C06F5F7F4F8F4F9F4F17
:100F6000089557FD9058440F551F59F05F3F71F099
:100F70004795880F97FB991F61F09F3F79F0879500
:100F80000895121613061406551FF2CF4695F1DF89
:100F900008C0161617061806991FF1CF8695710519
:100FA000610508940895E894BB2766277727CB014D
:100FB00097F908950E94E507A59F900DB49F900DA5
:100FC000A49F800D911D11240895A29FB001B39F8D
:100FD000C001A39F700D811D1124911DB29F700D42
:100FE000811D1124911D0895A1E21A2EAA1BBB1B7D
:100FF000FD010DC0AA1FBB1FEE1FFF1FA217B307E5
:10100000E407F50720F0A21BB30BE40BF50B661FFA
:10101000771F881F991F1A9469F7609570958095BE
:1010200090959B01AC01BD01CF010895EE0FFF1F0C
:101030000590F491E02D09945058BB27AA270E94EF
:1010400034080C94A0070E94920738F00E94990778
:1010500020F039F49F3F19F426F40C948F070EF416
:10106000E095E7FB0C948907E92F0E94B10758F33C
:10107000BA17620773078407950720F079F4A6F57D
:101080000C94D3070EF4E0950B2EBA2FA02D0B0174
:10109000B90190010C01CA01A0011124FF27591BBD
:1010A00099F0593F50F4503E68F11A16F040A22FC3
:1010B000232F342F4427585FF3CF46953795279534
:1010C000A795F0405395C9F77EF41F16BA0B620B33
:1010D000730B840BBAF09150A1F0FF0FBB1F661F7A
:1010E000771F881FC2F70EC0BA0F621F731F841FBD
:1010F00048F4879577956795B795F7959E3F08F0E3
:10110000B0CF9395880F08F09927EE0F97958795A4
:1011100008950E949D080C94A0070E94990758F01A
:101120000E94920740F029F45F3F29F00C94890750
:1011300051110C94D4070C948F070E94B10768F3E7
:101140009923B1F3552391F3951B550BBB27AA2780
:1011500062177307840738F09F5F5F4F220F331FBA
:10116000441FAA1FA9F335D00E2E3AF0E0E832D082
:1011700091505040E695001CCAF72BD0FE2F29D085
:10118000660F771F881FBB1F261737074807AB0757
:10119000B0E809F0BB0B802DBF01FF2793585F4FCC
:1011A0003AF09E3F510578F00C9489070C94D407CF
:1011B0005F3FE4F3983ED4F3869577956795B795AE
:1011C000F7959F5FC9F7880F911D9695879597F9B9
:1011D0000895E1E0660F771F881FBB1F6217730732
:1011E0008407BA0720F0621B730B840BBA0BEE1F47
:1011F00088F7E09508950E9402096894B1110C9453
:10120000D40708950E94B90788F09F5798F0B92F26
:101210009927B751B0F0E1F0660F771F881F991F2B
:101220001AF0BA95C9F714C0B13091F00E94D307F3
:10123000B1E008950C94D307672F782F8827B85F03
:1012400039F0B93FCCF3869577956795B395D9F783
:101250003EF490958095709561957F4F8F4F9F4F8D
:1012600008950E94F80608F48FEF089581E090E059
:0A127000F8940C943B09F894FFCFAA
:10127A00000000003002590187017D02F801960141
:10128A00AA010D0A00446520686F656B2069732006
:10129A006765656E207665656C766F756420766124
:0812AA006E2032322E350000E7
:00000001FF
