:100000000C9458000C9480000C9480000C94800098
:100010000C9480000C9480000C9480000C94800060
:100020000C9480000C9480000C9480000C94800050
:100030000C9480000C9480000C9480000C94800040
:100040000C944B030C9480000C94BB030C9495030C
:100050000C9480000C9480000C9480000C94800020
:100060000C94ED030C948000000000002500280093
:100070002B00040404040404040402020202020229
:10008000030303030303010204081020408001025C
:1000900004081020010204081020000000080002DB
:1000A00001000003040700000000000000001B0521
:1000B00011241FBECFEFD8E0DEBFCDBF11E0A0E01E
:1000C000B1E0EAE0FBE102C005900D92AA33B1076E
:1000D000D9F722E0AAE3B1E001C01D92AF3CB2071C
:1000E000E1F710E0C8E5D0E004C02197FE010E94CE
:1000F000B209C735D107C9F70E9454050C94830D86
:100100000C940000909113029111FCCF91E0909318
:100110001302409312022FEF20931102109210024B
:10012000260F20930F0290930E0290910E02880FDB
:10013000892B80930E0280910D02813061F4109220
:100140000D0280910E028093BB008091BC0083FD64
:10015000F8CF85EC01C085EE8093BC00809113023E
:100160008130E1F380911002861710F46091100243
:10017000ADEEB1E0EDECF1E080E0861721F09D916D
:1001800091938F5FFACF0895282F3091CC013132AF
:1001900008F04AC0809113028111FCCF9091CB01ED
:1001A00042E040931302209312022FEF209311029A
:1001B0001092100230930F02EBEAF1E0ADEEB1E0E5
:1001C00020E0321721F041914D932F5FFACF10922A
:1001D0000E0220910E02990F922B90930E02909195
:1001E0000D02913061F410920D0290910E029093E5
:1001F000BB009091BC0093FDF8CF95EC01C095EE4B
:100200009093BC00909113029230E1F3909111020F
:100210009F3F79F080911102803241F0809111026C
:10022000803331F084E005C081E003C082E001C08A
:1002300083E01092AA011092CC011092A9010895B6
:1002400090E0FC01E656FF4F2491FC01EA57FF4F76
:100250003491FC01EE58FF4FE491EE23B1F12223DB
:1002600039F1233091F038F42130A9F0223001F532
:1002700084B58F7D12C0273091F02830A1F0243052
:10028000B9F4809180008F7D03C0809180008F77CA
:10029000809380000DC084B58F7784BD09C08091A4
:1002A000B0008F7703C08091B0008F7D8093B00045
:1002B000F0E0EE0FFF1FE859FF4FA591B4918FB703
:1002C000F894EC91E32BEC938FBF08950895089573
:1002D000CF92DF92EF92FF920F931F93CF93DF9312
:1002E0006C017A018B01C0E0D0E0CE15DF0581F012
:1002F000D8016D918D01D601ED91FC910190F081B5
:10030000E02DC6010995892B11F02196EECF7E01D3
:10031000C701DF91CF911F910F91FF90EF90DF9078
:10032000CF900895FC01538D448D252F30E0842F0C
:1003300090E0821B930B541710F0CF96089501970D
:100340000895FC01918D828D981761F0828DDF01F7
:10035000A80FB11D5D968C91928D9F5F9F73928FB8
:1003600090E008958FEF9FEF0895FC01918D828DAD
:10037000981731F0828DE80FF11D858D90E008957A
:100380008FEF9FEF0895FC01918D228D892F90E0D2
:10039000805C9F4F821B91098F739927089584E198
:1003A00092E00E94C30121E0892B09F420E0822F12
:1003B0000895FC01848DDF01A80FB11DA35ABF4F22
:1003C0002C91848D90E001968F739927848FA68954
:1003D000B7892C93A089B1898C91837080648C93A8
:1003E000938D848D981306C00288F389E02D808157
:1003F0008F7D80830895EF92FF920F931F93CF9389
:10040000DF93EC0181E0888F9B8D8C8D981305C064
:10041000E889F989808185FD26C0F62E0B8D10E0D4
:100420000F5F1F4F0F731127E02E8C8DE8120CC049
:100430000FB607FCFACFE889F989808185FFF5CFEF
:10044000CE010E94D901F1CF8B8DFE01E80FF11D85
:10045000E35AFF4FF0829FB7F8940B8FEA89FB892C
:10046000808180620AC09FB7F894EE89FF8960831B
:10047000E889F98980818370806480839FBF81E0EF
:1004800090E0DF91CF911F910F91FF90EF90089531
:10049000CF93DF93EC01888D8823C9F0EA89FB892B
:1004A000808185FD05C0A889B9898C9186FD0FC022
:1004B0000FB607FCF5CF808185FFF2CFA889B989F7
:1004C0008C9185FFEDCFCE010E94D901E7CFDF915E
:1004D000CF91089580E090E0892B29F00E94CF0110
:1004E00081110C940000089585ED8093BC008091EB
:1004F000BC0084FDFCCF10921302089540915A0174
:10050000262F30E0240F311D21323105DCF42091FB
:1005100013022430C9F4FC0180E090E0861758F4FF
:1005200030915A012191DC01A65CBE4FA30FB11D91
:100530002C930196F3CF80915A01680F60935A0172
:1005400080E0089581E0089582E008950895E091A3
:10055000830180918201E81730F4F0E0E353FE4F0D
:10056000808190E008958FEF9FEF0895909183012F
:1005700080918201981750F4E92FF0E0E353FE4F89
:10058000208130E09F5F9093830102C02FEF3FEF07
:10059000C90108958091820190E020918301821B1E
:1005A00091090895CF92DF92EF92FF920F931F93DC
:1005B000CF93DF937C01CB018A012091A9012223F3
:1005C00089F0EB016B01C40ED51ECC15DD0569F079
:1005D0006991D701ED91FC910190F081E02DC70167
:1005E0000995F3CF642F0E947E02C801DF91CF915D
:1005F0001F910F91FF90EF90DF90CF900895CF93D0
:10060000DF931F92CDB7DEB769832091A901222322
:10061000D1F02091CC01203240F021E030E0FC010B
:100620003383228380E090E015C08091AA01E82FF7
:10063000F0E0E555FE4F998190838F5F8093AA018A
:100640008093CC0105C061E0CE0101960E947E023C
:1006500081E090E00F90DF91CF910895682F81EBBA
:1006600092E00C94FF02089580E090E008950097D6
:1006700069F0FC0101900020E9F73197AF01481BB8
:10068000590BBC0184E192E00C94680180E090E099
:1006900008950E947E0D1F920F920FB60F921124A3
:1006A0002F933F938F939F93AF93BF938091A50117
:1006B0009091A601A091A701B091A8013091A40149
:1006C00023E0230F2D3720F40196A11DB11D05C095
:1006D00026E8230F0296A11DB11D2093A40180934B
:1006E000A5019093A601A093A701B093A8018091C2
:1006F000A0019091A101A091A201B091A301019646
:10070000A11DB11D8093A0019093A101A093A2010E
:10071000B093A301BF91AF919F918F913F912F9182
:100720000F900FBE0F901F9018951F920F920FB64B
:100730000F9211242F933F934F935F936F937F9367
:100740008F939F93AF93BF93EF93FF9384E192E0D6
:100750000E94D901FF91EF91BF91AF919F918F912D
:100760007F916F915F914F913F912F910F900FBEAD
:100770000F901F9018951F920F920FB60F92112491
:100780002F938F939F93EF93FF93E0912402F09127
:1007900025028081E0912A02F0912B0282FD12C095
:1007A000908180912D028F5F8F7320912E0282178E
:1007B00051F0E0912D02F0E0EC5EFD4F958F8093BB
:1007C0002D0201C08081FF91EF919F918F912F9118
:1007D0000F900FBE0F901F9018951F920F920FB69B
:1007E0000F9211242F933F934F935F936F937F93B7
:1007F0008F939F93AF93BF93EF93FF938091B90033
:10080000887F803609F49CC068F5883209F45BC0A3
:1008100090F4803109F454C038F4882309F4F6C008
:10082000883009F44DC0F6C0883109F44CC08032DC
:1008300009F45DC0EFC0803409F468C048F4803327
:1008400009F455C0883309F0E5C080931102D8C07F
:10085000803509F44FC0883509F45DC0883409F04B
:10086000D9C0D6C0883909F4C7C0A8F4883709F4BC
:1008700067C038F4883609F463C0803709F460C073
:10088000C9C0883809F4B8C0803909F45FC080381D
:1008900009F0C0C05BC0803B09F486C038F4803AE0
:1008A00009F466C0883A09F47FC0B4C0803C09F4FA
:1008B000A7C0883C09F4A4C0883B09F48AC0AAC038
:1008C00080910E0210C09091100280910F02981733
:1008D00070F5E091100281E08E0F80931002F0E03D
:1008E000E351FE4F80818093BB0085EC86C08093EE
:1008F00011028EC0E091100281E08E0F80931002F1
:100900008091BB00F0E0E351FE4F80839091100294
:1009100080910F026EC0E091100281E08E0F8093F3
:1009200010028091BB00F0E0E351FE4F8083809184
:10093000120281116DC081E080930D0284EA61C0D2
:1009400083E08093130210927C01CFCF80917C01D1
:10095000803208F051C0E0917C0181E08E0F8093DD
:100960007C018091BB00F0E0E45AFE4F8083BDCF54
:1009700085EC8093BC001092130280917C01803240
:1009800030F4E0917C01F0E0E45AFE4F1082609177
:100990007C0170E0E0917D01F0917E018CE591E0B9
:1009A000099510927C0136C084E080931302109266
:1009B0005B0110925A01E0917F01F091800109954D
:1009C00080915A01811105C081E080935A011092F3
:1009D0003A01E0915B0181E08E0F80935B01F0E0D2
:1009E000E65CFE4F80818093BB0090915B0180911B
:1009F0005A01981708F479CF85E88093BC000AC0A3
:100A000085EC8093BC001092130204C01092110276
:100A10000E947402FF91EF91BF91AF919F918F91CE
:100A20007F916F915F914F913F912F910F900FBEEA
:100A30000F901F901895E4E1F2E01382128288EE85
:100A400093E0A0E0B0E084839583A683B7832AE097
:100A500031E03183208325EC30E03587248724EC96
:100A600030E03787268720EC30E0318B208B21EC7B
:100A700030E0338B228B22EC30E0358B248B26EC5C
:100A800030E0378B268B118E128E138E148EE1EB95
:100A9000F2E01382128284839583A683B7838CE16C
:100AA00091E0918380830895CF93DF93CDB7DEB734
:100AB000A4970FB6F894DEBF0FBECDBF789484B56F
:100AC000826084BD84B5816084BD85B5826085BD4A
:100AD00085B5816085BD80916E00816080936E00D8
:100AE00010928100809181008260809381008091CA
:100AF000810081608093810080918000816080937B
:100B000080008091B10084608093B1008091B0003A
:100B100081608093B00080917A00846080937A0035
:100B200080917A00826080937A0080917A0081605F
:100B300080937A0080917A00806880937A00109286
:100B4000C10010928301109282011092AA011092AA
:100B5000CC011092130211E01093120210920D02B8
:100B600082E10E94200183E10E9420018091B9006E
:100B70008E7F8093B9008091B9008D7F8093B900FA
:100B800088E48093B80085E48093BC0086E691E019
:100B90009093800180937F0187E691E090937E019E
:100BA00080937D011093A90188E68093CB01109278
:100BB000AA011092CC018BE690E00E942E0380E007
:100BC00090E00E942E0381E00E94C4001093A901CE
:100BD0001092AA011092CC018BE190E00E942E03AA
:100BE00088E090E00E942E0381E00E94C400E09122
:100BF0002402F091250282E08083E0912002F091AE
:100C000021021082E0912202F09123028FEC808376
:100C100010922C02E0912802F091290286E0808354
:100C2000E0912602F0912702808180618083E0912B
:100C30002602F0912702808188608083E09126025D
:100C4000F0912702808180688083E0912602F091F4
:100C5000270280818F7D80832FB7F8946091A50152
:100C60007091A6018091A7019091A8012FBF0E94C9
:100C7000D20A60939C0170939D0180939E01909392
:100C80009F0180918101882341F08091BD02909164
:100C9000BE02892B09F07FC063C000E010E0DD24B4
:100CA000D39468E6C62ED092A901C092CB011092CF
:100CB000AA011092CC0187E490E00E942E0380E00C
:100CC0000E94C40041E062E088E60E948200109227
:100CD00083018093820181EB92E00E94B602B82EDC
:100CE00081EB92E00E94B602FB2CE12C8E299F2919
:100CF000BC01990F880B990B0E94D40A20E030E0C8
:100D000043E852E40E942A0A209190013091910117
:100D100040919201509193010E94B9096093900112
:100D2000709391018093920190939301073C110578
:100D300081F420E030E048E453E40E942A0A609302
:100D40009001709391018093920190939301D092BE
:100D500081010F5F1F4F083C110509F0A4CF95CF0B
:100D600088EC90E00E945D0C9093BE028093BD02DF
:100D7000892B89F082E38093C1021092BF02109206
:100D8000C0021092C2021092C3021092C4021092CA
:100D9000C5021092C6025AE0252E312C412C512C4E
:100DA00080919C0190919D01A0919E01B0919F0125
:100DB0008093980190939901A0939A01B0939B011D
:100DC0002FB7F8946091A5017091A6018091A701B9
:100DD0009091A8012FBF0E94D20A60939C0170934A
:100DE0009D0180939E0190939F01209198013091E5
:100DF000990140919A0150919B010E94B80920E00D
:100E000030E04AE754E40E942A0A6B017C016093B7
:100E1000940170939501809396019093970121E03E
:100E20002093A90138E63093CB011092AA011092C9
:100E3000CC0187E490E00E942E0380E00E94C40071
:100E400041E062E088E60E94820010928301809374
:100E5000820181EB92E00E94B602182F81EB92E0B2
:100E60000E94B6021BA31AA2EAA1FBA18E2B9F2B04
:100E7000BC01990F880B990B0E94D40A20E030E046
:100E800043E852E40E942A0A209190013091910196
:100E900040919201509193010E94B8090E949C0ACE
:100EA000072E000C880B990B0E94D40AA70196010B
:100EB0000E94EB0B20918C0130918D0140918E01AD
:100EC00050918F010E94B90920E030E044EB53E4D7
:100ED0000E941A0B6B017C0120E030E0A9010E9406
:100EE000250A87FF09C020E030E044EB53E4C70146
:100EF000B6010E94B909EECFC0928C01D0928D014B
:100F0000E0928E01F0928F01A090BD02B090BE02DF
:100F1000A114B10409F476C08091BF02F50124E068
:100F2000829FE00DF11D1124C082D182E282F38202
:100F30007090C102872C912C8091BF0290E00196A5
:100F4000B4010E9468098C018093BF028091C202A3
:100F50008F5F8093C2022091C7023091C8024091F6
:100F6000C9025091CA02C701B6010E94B909609333
:100F7000C7027093C8028093C9029093CA0220915D
:100F8000C002021320C011279801220F331F220F25
:100F9000331FF501E20FF31F20813181428153811C
:100FA0000E94B8096093C7027093C8028093C90277
:100FB0009093CA02C8010196B4010E946809809307
:100FC000C0027092C2026091C20270E06150710969
:100FD000072E000C880B990B0E94D40A9B01AC01D0
:100FE0006091C7027091C8028091C9029091CA02B3
:100FF0000E942A0A6093C3027093C4028093C502C0
:101000009093C602A70196016091C3027091C40239
:101010008091C5029091C6020E94B8094B015C0103
:1010200020E030E0A9010E94E60B181664F42AE0E3
:1010300037ED43E25CE3C501B4010E94250A1816AE
:101040000CF443C10AC02AE037ED43E25CEBC50172
:10105000B4010E94E60B87FD38C1209188013091D0
:10106000890140918A0150918B01C0928801D092F0
:101070008901E0928A01F0928B01C701B6010E94BA
:10108000B8096B017C0120E030E044E353EC0E949E
:10109000250A87FF09C020E030E044EB53E4C70194
:1010A000B6010E94B9091BC020E030E044E353E4DC
:1010B000C701B6010E94E60B18164CF0C0928401DD
:1010C000D0928501E0928601F092870110C020E065
:1010D00030E044EB53E4C701B6010E94B8096093C5
:1010E0008401709385018093860190938701C0905D
:1010F0008401D0908501E0908601F090870120E086
:1011000030E0A901C701B6010E94E60B18165CF495
:1011100020E030E044E351E4C701B6010E94E60B51
:1011200087FF0CC0D2C020E030E044E351ECC7019F
:10113000B6010E94250A18160CF4C7C0A701960133
:10114000C701B6010E94580C882319F08AE291E089
:101150001AC046015701E894B7F82FEF3FEF4FE769
:101160005FE7C501B4010E94580C81110FC02FEF39
:101170003FEF4FE75FE7C501B4010E94250A18164B
:101180002CF48EE291E00E9437039BC02FEF3FEFDB
:101190004FE75FE4C701B6010E94E60B18161CF486
:1011A00082E391E0F0CF2FEF3FEF4FE75FECC70115
:1011B000B6010E94250A87FDF3CF20E030E0A901A7
:1011C000C701B6010E94250A87FF09C06DE284E1CC
:1011D00092E00E94FB01F7FAF094F7F8F0942AE00D
:1011E00037ED43EA5BE3C701B6010E94B9094B0141
:1011F0005C010E94A30A6B017C010E94D20A9B0140
:10120000AC01C501B4010E94B8093B014C0119A20F
:101210008E010F5D1F4F0CA3B12EC701B601A201B5
:1012200091010E947C0969017A01605DF801629375
:101230008F01232B242B252B81F7CF010E9437030D
:101240006EE284E192E00E94FB0183E0F82EFA94C2
:10125000FF20B9F120E030E040E251E4C401B301E5
:101260000E94EB0B3B014C010E94A30A9B0140E052
:1012700050E019A20CA11B2DA62EC32ED42EE52EB4
:10128000CA01B901A20191010E947C09605DF801C7
:1012900062938F01211531054105510589F7CF0171
:1012A0000E9437036A2D7C2D8D2D9E2D0E94D20A1F
:1012B0009B01AC01C401B3010E94B8093B014C0180
:1012C000C6CF86E391E00E9437030E946A0268CD90
:1012D00097FB072E16F4009407D077FD09D00E94E3
:1012E0009E0907FC05D03EF4909581959F4F089587
:1012F000709561957F4F0895A1E21A2EAA1BBB1B22
:10130000FD010DC0AA1FBB1FEE1FFF1FA217B307D1
:10131000E407F50720F0A21BB30BE40BF50B661FE7
:10132000771F881F991F1A9469F7609570958095AB
:1013300090959B01AC01BD01CF010895AA1BBB1B79
:1013400051E107C0AA1FBB1FA617B70710F0A61BC5
:10135000B70B881F991F5A95A9F780959095BC01E6
:10136000CD010895EE0FFF1F0590F491E02D099433
:101370005058BB27AA270E94D0090C94AC0B0E949E
:101380009E0B38F00E94A50B20F039F49F3F19F412
:1013900026F40C949B0B0EF4E095E7FB0C94870B62
:1013A000E92F0E94BD0B58F3BA1762077307840731
:1013B000950720F079F4A6F50C94DF0B0EF4E09578
:1013C0000B2EBA2FA02D0B01B90190010C01CA01FF
:1013D000A0011124FF27591B99F0593F50F4503EAA
:1013E00068F11A16F040A22F232F342F4427585F9C
:1013F000F3CF469537952795A795F0405395C9F7B4
:101400007EF41F16BA0B620B730B840BBAF091506B
:10141000A1F0FF0FBB1F661F771F881FC2F70EC00A
:10142000BA0F621F731F841F48F4879577956795DD
:10143000B795F7959E3F08F0B0CF9395880F08F0C9
:101440009927EE0F9795879508950E94630B08F4EE
:1014500081E008950E943E0A0C94AC0B0E94A50BFB
:1014600058F00E949E0B40F029F45F3F29F00C9445
:10147000870B51110C94E00B0C949B0B0E94BD0B3D
:1014800068F39923B1F3552391F3951B550BBB27B3
:10149000AA2762177307840738F09F5F5F4F220FF8
:1014A000331F441FAA1FA9F335D00E2E3AF0E0E8EF
:1014B00032D091505040E695001CCAF72BD0FE2F39
:1014C00029D0660F771F881FBB1F261737074807CD
:1014D000AB07B0E809F0BB0B802DBF01FF27935885
:1014E0005F4F3AF09E3F510578F00C94870B0C94B7
:1014F000E00B5F3FE4F3983ED4F3869577956795CC
:10150000B795F7959F5FC9F7880F911D96958795B9
:1015100097F90895E1E0660F771F881FBB1F6217D8
:1015200073078407BA0720F0621B730B840BBA0B96
:10153000EE1F88F7E09508950E94A30A6894B11100
:101540000C94E00B08950E94C50B88F09F5798F00B
:10155000B92F9927B751B0F0E1F0660F771F881FB8
:10156000991F1AF0BA95C9F714C0B13091F00E94D2
:10157000DF0BB1E008950C94DF0B672F782F8827DD
:10158000B85F39F0B93FCCF3869577956795B395F9
:10159000D9F73EF490958095709561957F4F8F4F68
:1015A0009F4F0895E89409C097FB3EF4909580956D
:1015B000709561957F4F8F4F9F4F9923A9F0F92F19
:1015C00096E9BB279395F695879577956795B79597
:1015D000F111F8CFFAF4BB0F11F460FF1BC06F5F7D
:1015E0007F4F8F4F9F4F16C0882311F096E911C08F
:1015F000772321F09EE8872F762F05C0662371F0B0
:1016000096E8862F70E060E02AF09A95660F771FC3
:10161000881FDAF7880F9695879597F908950E94A5
:101620009E0B20F019F00E94A50B50F40C949B0B1C
:101630000C94E00BE92F0E94BD0B88F35523B1F306
:10164000E7FB6217730784079507A8F189F3E92F71
:10165000FF2788232AF03197660F771F881FDAF754
:10166000952F5527442332F091505040220F331FBD
:10167000441FD2F7BB27E91BF50B621B730B840BCE
:10168000B109B1F222F4620F731F841FB11D3197AB
:101690002AF0660F771F881FBB1FEFCF9150504075
:1016A00062F041F0882332F0660F771F881F915057
:1016B0005040C1F793950C948D0B8695779567955F
:1016C0009F5FD9F7F7CF990F0008550FAA0BE0E8F5
:1016D000FEEF16161706E807F907C0F012161306F4
:1016E000E407F50798F0621B730B840B950B39F434
:1016F0000A2661F0232B242B252B21F408950A269A
:1017000009F4A140A6958FEF811D811D089597F9D9
:101710009F6780E870E060E008959F3F31F091504E
:1017200020F4879577956795B795880F911D9695C5
:10173000879597F908959FEF80EC089500240A9407
:101740001616170618060906089500240A9412169C
:101750001306140605060895092E0394000C11F4CF
:10176000882352F0BB0F40F4BF2B11F460FF04C07C
:101770006F5F7F4F8F4F9F4F089557FD9058440FD5
:10178000551F59F05F3F71F04795880F97FB991FE0
:1017900061F09F3F79F0879508951216130614069D
:1017A000551FF2CF4695F1DF08C01616170618062A
:1017B000991FF1CF86957105610508940895E89405
:1017C000BB2766277727CB0197F908950E94630B03
:1017D00008F48FEF08950E94FE0B0C94AC0B0E944E
:1017E0009E0B38F00E94A50B20F0952311F00C946D
:1017F000870B0C949B0B11240C94E00B0E94BD0BE7
:1018000070F3959FC1F3950F50E0551F629FF00153
:10181000729FBB27F00DB11D639FAA27F00DB11D6C
:10182000AA1F649F6627B00DA11D661F829F2227F5
:10183000B00DA11D621F739FB00DA11D621F839F7C
:10184000A00D611D221F749F3327A00D611D231F52
:10185000849F600D211D822F762F6A2F11249F57A0
:1018600050409AF0F1F088234AF0EE0FFF1FBB1FA3
:10187000661F771F881F91505040A9F79E3F510562
:1018800080F00C94870B0C94E00B5F3FE4F3983EE0
:10189000D4F3869577956795B795F795E7959F5F0C
:1018A000C1F7FE2B880F911D9695879597F908959E
:1018B0000E94630B880B990B08950F931F93CF938E
:1018C000DF938230910510F482E090E0E091CD0248
:1018D000F091CE0220E030E0A0E0B0E0309719F1C6
:1018E000408151810281138148175907C8F084173C
:1018F000950769F4109731F012960C93129713968E
:101900001C9327C00093CD021093CE0222C0211554
:10191000310519F04217530718F49A01BD01EF0180
:10192000DF01F801DBCF21153105F9F0281B390B58
:101930002430310580F48A819B816115710521F085
:10194000FB019383828304C09093CE028093CD02E7
:10195000FE01329644C0FE01E20FF31F8193919382
:1019600022503109398328833AC02091CB0230912B
:10197000CC02232B41F420910201309103013093DA
:10198000CC022093CB02209100013091010121155E
:10199000310541F42DB73EB7409104015091050146
:1019A000241B350BE091CB02F091CC02E217F30738
:1019B000A0F42E1B3F0B2817390778F0AC014E5FBF
:1019C0005F4F2417350748F04E0F5F1F5093CC022E
:1019D0004093CB028193919302C0E0E0F0E0CF010D
:1019E000DF91CF911F910F910895CF93DF930097CF
:1019F00009F481C0FC01329713821282A091CD02BA
:101A0000B091CE02109781F420813181820F931F13
:101A10002091CB023091CC022817390751F5F09371
:101A2000CC02E093CB0267C0ED0120E030E0CE179E
:101A3000DF0740F44A815B819E0141155105F1F0B9
:101A4000EA01F5CFD383C28340815181840F951F72
:101A5000C817D90759F488819981840F951F029678
:101A6000918380838A819B819383828321153105B1
:101A700029F4F093CE02E093CD023DC0E901FB834F
:101A8000EA8349915991C40FD51FEC17FD0761F402
:101A900080819181840F951F0296E9019983888343
:101AA000828193819B838A83E0E0F0E012968D919E
:101AB0009C911397009719F0FD01DC01F7CF8D91F0
:101AC0009C9111979D012E5F3F4F820F931F209194
:101AD000CB023091CC022817390769F4309729F4EA
:101AE0001092CE021092CD0202C013821282B093E5
:101AF000CC02A093CB02DF91CF91089581E090E0DA
:0A1B0000F8940C94830DF894FFCFC5
:101B0A000000CF02200000000000FB0168019201E2
:101B1A004802C301A101B50100000000FF02D20280
:101B2A003403A602CA02B602A7026E616E00696E8B
:0A1B3A0066006F7666000D0A0000D9
:00000001FF
