:100000000C9458000C9480000C9480000C94800098
:100010000C9480000C9480000C9480000C94800060
:100020000C9480000C9480000C9480000C94800050
:100030000C9480000C9480000C9480000C94800040
:100040000C9470030C9480000C94E0030C94BA039D
:100050000C9480000C9480000C9480000C94800020
:100060000C9412040C94800000000000250028006D
:100070002B00040404040404040402020202020229
:10008000030303030303010204081020408001025C
:1000900004081020010204081020000000080002DB
:1000A00001000003040700000000000000004005FC
:1000B00011241FBECFEFD8E0DEBFCDBF11E0A0E01E
:1000C000B1E0E8E0F7E102C005900D92AA34B10773
:1000D000D9F722E0AAE4B1E001C01D92A03DB20729
:1000E000E1F710E0C8E5D0E004C02197FE010E94CE
:1000F0003409C735D107C9F70E9479050C94820BE2
:100100000C940000909126029111FCCF91E0909305
:100110002602409325022FEF2093240210922302FF
:10012000260F209322029093210290912102880FA2
:10013000892B8093210280912002813061F41092FA
:100140002002809121028093BB008091BC0083FD3E
:10015000F8CF85EC01C085EE8093BC00809126022B
:100160008130E1F380912302861710F4609123021D
:10017000A0E0B2E0E0EEF1E080E0861721F09D9192
:1001800091938F5FFACF0895282F3091DF0131329C
:1001900008F04AC0809126028111FCCF9091DE01C7
:1001A00042E040932602209325022FEF2093240261
:1001B0001092230230932202EEEBF1E0A0E0B2E0D5
:1001C00020E0321721F041914D932F5FFACF10922A
:1001D000210220912102990F922B9093210290915C
:1001E0002002913061F410922002909121029093AC
:1001F000BB009091BC0093FDF8CF95EC01C095EE4B
:100200009093BC00909126029230E1F390912402E9
:100210009F3F79F080912402803241F08091240246
:10022000803331F084E005C081E003C082E001C08A
:1002300083E01092BD011092DF011092BC0108957D
:1002400090E0FC01E656FF4F2491FC01EA57FF4F76
:100250003491FC01EE58FF4FE491EE23B1F12223DB
:1002600039F1233091F038F42130A9F0223001F532
:1002700084B58F7D12C0273091F02830A1F0243052
:10028000B9F4809180008F7D03C0809180008F77CA
:10029000809380000DC084B58F7784BD09C08091A4
:1002A000B0008F7703C08091B0008F7D8093B00045
:1002B000F0E0EE0FFF1FE859FF4FA591B4918FB703
:1002C000F894EC91E32BEC938FBF08953FB7F8942B
:1002D0008091B8019091B901A091BA01B091BB0190
:1002E00026B5A89B05C02F3F19F00196A11DB11D91
:1002F0003FBFBA2FA92F982F8827820F911DA11DCC
:10030000B11DBC01CD0142E0660F771F881F991F08
:100310004A95D1F7089508950895CF92DF92EF920C
:10032000FF920F931F93CF93DF936C017A018B01A0
:10033000C0E0D0E0CE15DF0581F0D8016D918D01D0
:10034000D601ED91FC910190F081E02DC601099557
:10035000892B11F02196EECF7E01C701DF91CF915D
:100360001F910F91FF90EF90DF90CF900895FC01C7
:10037000538D448D252F30E0842F90E0821B930B0A
:10038000541710F0CF96089501970895FC01918DB0
:10039000828D981761F0828DDF01A80FB11D5D96E7
:1003A0008C91928D9F5F9F73928F90E008958FEF55
:1003B0009FEF0895FC01918D828D981731F0828D09
:1003C000E80FF11D858D90E008958FEF9FEF089560
:1003D000FC01918D228D892F90E0805C9F4F821BC4
:1003E00091098F739927089587E292E00E94E801AE
:1003F00021E0892B09F420E0822F0895FC01848DEF
:10040000DF01A80FB11DA35ABF4F2C91848D90E03E
:1004100001968F739927848FA689B7892C93A08919
:10042000B1898C91837080648C93938D848D9813A3
:1004300006C00288F389E02D80818F7D8083089536
:10044000EF92FF920F931F93CF93DF93EC0181E024
:10045000888F9B8D8C8D981305C0E889F9898081E0
:1004600085FD26C0F62E0B8D10E00F5F1F4F0F731A
:100470001127E02E8C8DE8120CC00FB607FCFACFC6
:10048000E889F989808185FFF5CFCE010E94FE01C0
:10049000F1CF8B8DFE01E80FF11DE35AFF4FF08283
:1004A0009FB7F8940B8FEA89FB89808180620AC02C
:1004B0009FB7F894EE89FF896083E889F989808184
:1004C0008370806480839FBF81E090E0DF91CF9153
:1004D0001F910F91FF90EF900895CF93DF93EC0160
:1004E000888D8823C9F0EA89FB89808185FD05C054
:1004F000A889B9898C9186FD0FC00FB607FCF5CF8E
:10050000808185FFF2CFA889B9898C9185FFEDCFD5
:10051000CE010E94FE01E7CFDF91CF91089580E0E8
:1005200090E0892B29F00E94F40181110C940000C5
:10053000089585ED8093BC008091BC0084FDFCCFC4
:1005400010922602089540916A01262F30E0240F70
:10055000311D21323105DCF4209126022430C9F40A
:10056000FC0180E090E0861758F430916A012191F7
:10057000DC01A65BBE4FA30FB11D2C930196F3CFF8
:1005800080916A01680F60936A0180E0089581E0BC
:10059000089582E008950895E09194018091930177
:1005A000E81730F4F0E0E052FE4F808190E00895CB
:1005B0008FEF9FEF08959091940180919301981788
:1005C00050F4E92FF0E0E052FE4F208130E09F5FD1
:1005D0009093940102C02FEF3FEFC90108958091DD
:1005E000930190E020919401821B91090895CF928C
:1005F000DF92EF92FF920F931F93CF93DF937C01D3
:10060000CB018A012091BC01222389F0EB016B010F
:10061000C40ED51ECC15DD0569F06991D701ED91A9
:10062000FC910190F081E02DC7010995F3CF642F73
:100630000E94A302C801DF91CF911F910F91FF90FB
:10064000EF90DF90CF900895CF93DF931F92CDB7B7
:10065000DEB769832091BC012223D1F02091DF0114
:10066000203240F021E030E0FC013383228380E03F
:1006700090E015C08091BD01E82FF0E0E254FE4FFC
:10068000998190838F5F8093BD018093DF0105C0C6
:1006900061E0CE0101960E94A30281E090E00F90FC
:1006A000DF91CF910895682F84EC92E00C9424039D
:1006B000089580E090E00895009769F0FC010190B2
:1006C0000020E9F73197AF01481B590BBC0187E2C5
:1006D00092E00C948D0180E090E008950E947D0BE3
:1006E0001F920F920FB60F9211242F933F938F9367
:1006F0009F93AF93BF938091B4019091B501A09166
:10070000B601B091B7013091B30123E0230F2D372B
:1007100020F40196A11DB11D05C026E8230F029605
:10072000A11DB11D2093B3018093B4019093B50135
:10073000A093B601B093B7018091B8019091B9012F
:10074000A091BA01B091BB010196A11DB11D80938A
:10075000B8019093B901A093BA01B093BB01BF91C6
:10076000AF919F918F913F912F910F900FBE0F905E
:100770001F9018951F920F920FB60F9211242F936E
:100780003F934F935F936F937F938F939F93AF9319
:10079000BF93EF93FF9387E292E00E94FE01FF91E7
:1007A000EF91BF91AF919F918F917F916F915F91E9
:1007B0004F913F912F910F900FBE0F901F90189562
:1007C0001F920F920FB60F9211242F938F939F9326
:1007D000EF93FF93E0913702F09138028081E0912E
:1007E0003D02F0913E0282FD12C090818091400254
:1007F0008F5F8F7320914102821751F0E091400288
:10080000F0E0E95DFD4F958F8093400201C080814B
:10081000FF91EF919F918F912F910F900FBE0F90AD
:100820001F9018951F920F920FB60F9211242F93BD
:100830003F934F935F936F937F938F939F93AF9368
:10084000BF93EF93FF938091B900887F803609F4BE
:100850009CC068F5883209F45BC090F4803109F4DB
:1008600054C038F4882309F4F6C0883009F44DC028
:10087000F6C0883109F44CC0803209F45DC0EFC085
:10088000803409F468C048F4803309F455C08833D3
:1008900009F0E5C080932402D8C0803509F44FC028
:1008A000883509F45DC0883409F0D9C0D6C08839CC
:1008B00009F4C7C0A8F4883709F467C038F488364B
:1008C00009F463C0803709F460C0C9C0883809F4EE
:1008D000B8C0803909F45FC0803809F0C0C05BC07F
:1008E000803B09F486C038F4803A09F466C0883A3F
:1008F00009F47FC0B4C0803C09F4A7C0883C09F467
:10090000A4C0883B09F48AC0AAC08091210210C00B
:100910009091230280912202981770F5E0912302B2
:1009200081E08E0F80932302F0E0E050FE4F808143
:100930008093BB0085EC86C0809324028EC0E0913A
:10094000230281E08E0F809323028091BB00F0E0B0
:10095000E050FE4F808390912302809122026EC06E
:10096000E091230281E08E0F809323028091BB00EF
:10097000F0E0E050FE4F80838091250281116DC030
:1009800081E08093200284EA61C083E080932602A4
:1009900010928C01CFCF80918C01803208F051C031
:1009A000E0918C0181E08E0F80938C018091BB00DF
:1009B000F0E0E459FE4F8083BDCF85EC8093BC000E
:1009C0001092260280918C01803230F4E0918C01EB
:1009D000F0E0E459FE4F108260918C0170E0E091EC
:1009E0008D01F0918E018CE691E0099510928C01B9
:1009F00036C084E08093260210926B0110926A0147
:100A0000E0918F01F0919001099580916A01811127
:100A100005C081E080936A0110924A01E0916B0168
:100A200081E08E0F80936B01F0E0E65BFE4F8081EA
:100A30008093BB0090916B0180916A01981708F434
:100A400079CF85E88093BC000AC085EC8093BC0018
:100A50001092260204C0109224020E949902FF9173
:100A6000EF91BF91AF919F918F917F916F915F9126
:100A70004F913F912F910F900FBE0F901F9018959F
:100A8000E7E2F2E01382128288EE93E0A0E0B0E0A9
:100A900084839583A683B78324E031E03183208368
:100AA00025EC30E03587248724EC30E03787268733
:100AB00020EC30E0318B208B21EC30E0338B228B2B
:100AC00022EC30E0358B248B26EC30E0378B268B04
:100AD000118E128E138E148EE4ECF2E013821282C9
:100AE00084839583A683B78386E191E09183808395
:100AF0000895CF93DF93CDB7DEB7A7970FB6F894DD
:100B0000DEBF0FBECDBF789484B5826084BD84B54E
:100B1000816084BD85B5826085BD85B5816085BDF8
:100B200080916E00816080936E00109281008091B0
:100B30008100826080938100809181008160809338
:100B40008100809180008160809380008091B1005D
:100B500084608093B1008091B00081608093B00088
:100B600080917A00846080937A0080917A0082601C
:100B700080937A0080917A00816080937A008091DE
:100B80007A00806880937A001092C10010929401DC
:100B9000109293011092BD011092DF011092260273
:100BA00011E0109325021092200282E10E942001A0
:100BB00083E10E9420018091B9008E7F8093B9006B
:100BC0008091B9008D7F8093B90088E48093B8004C
:100BD00085E48093BC008BE891E090939001809332
:100BE0008F018CE891E090938E0180938D0110939A
:100BF000BC0188E68093DE011092BD011092DF01F6
:100C00008BE690E00E94530380E090E00E94530343
:100C100081E00E94C4001093BC011092BD011092AB
:100C2000DF018BE190E00E94530380E190E00E949D
:100C3000530381E00E94C400E0913702F091380232
:100C400082E08083E0913302F09134021082E091DF
:100C50003502F09136028FEC808310923F02E091D2
:100C60003B02F0913C0286E08083E0913902F091F2
:100C70003A02808180618083E0913902F0913A02EA
:100C8000808188608083E0913902F0913A0280810E
:100C900080688083E0913902F0913A0280818F7DF3
:100CA00080832FB7F8946091B4017091B501809161
:100CB000B6019091B7012FBF0E94540A6093AF0113
:100CC0007093B0018093B1019093B2018091910132
:100CD00090919201892B29F02224239438E6332E17
:100CE000FBC0E12CF12C28E6222E21E02093BC0150
:100CF0002092DE011092BD011092DF0183E490E0AA
:100D00000E94530380E00E94C40041E064E088E652
:100D10000E948200109294018093930184EC92E0EF
:100D20000E94DB02182F84EC92E00E94DB02912EDD
:100D3000812C6401C82AD92AD092A601C092A501AB
:100D400084EC92E00E94DB02382E84EC92E00E9458
:100D5000DB028C01B601DD0C880B990B0E94560A50
:100D600023E333E343E052E40E94AC092091A10164
:100D70003091A2014091A3015091A4010E943B092E
:100D80002B013C016093A1017093A2018093A30108
:100D90009093A4013BA21AA26AA17BA1602B712BA4
:100DA000072E000C880B990B0E94560A23E333E3AD
:100DB00043E052E40E94AC0920919D0130919E01D4
:100DC00040919F015091A0010E943B095B016C0181
:100DD00060939D0170939E0180939F019093A00169
:100DE00087ECE816F10431F520E030E048E453E404
:100DF000C301B2010E94AC096093A1017093A201EA
:100E00008093A3019093A40120E030E048E453E4F0
:100E1000C601B5010E94AC0960939D0170939E01CB
:100E200080939F019093A001E1E0F0E0F0939201A4
:100E3000E0939101FFEFEF1AFF0A28ECE216F104AC
:100E400009F053CF49CF46015701E894B7F82FEF87
:100E50003FEF4FE75FE7C501B4010E94780B8111B6
:100E600041C12FEF3FEF4FE75FE7C501B4010E949B
:100E7000A70918160CF036C18EE391E00E945C03BE
:100E800086E491E00E945C030E9466016B017C0194
:100E900084E6882E912CA12CB12C0E946601DC01E5
:100EA000CB018C199D09AE09BF09883E9340A1056D
:100EB000B10598F3F1E08F1A9108A108B10828EE66
:100EC000C20E23E0D21EE11CF11C81149104A10486
:100ED000B10419F70E948F028091AF019091B00187
:100EE000A091B101B091B2018093AB019093AC019C
:100EF000A093AD01B093AE012FB7F8946091B40107
:100F00007091B5018091B6019091B7012FBF0E94F9
:100F1000540A6093AF017093B0018093B101909334
:100F2000B2012091AB013091AC014091AD015091E3
:100F3000AE010E943A0920E030E04AE754E40E9402
:100F4000AC094B015C016093A7017093A8018093E9
:100F5000A9019093AA012092BC013092DE01109267
:100F6000BD011092DF0183E490E00E94530380E012
:100F70000E94C40041E064E088E60E948200109272
:100F800094018093930184EC92E00E94DB02182F7D
:100F900084EC92E00E94DB021DA31CA2ECA0FDA049
:100FA000E82AF92A84EC92E00E94DB02782E84EC95
:100FB00092E00E94DB028C01B701FF0C880B990BB9
:100FC0000E94560A23E333E343E052E40E94AC0953
:100FD0002091A1013091A2014091A3015091A4015F
:100FE0000E943A090E941E0A6B017C017093A601BF
:100FF0006093A5017FA21EA26EA17FA1602B712B21
:10100000072E000C880B990B0E94560A23E333E34A
:1010100043E052E40E94AC0920919D0130919E0171
:1010200040919F015091A0010E943A090E941E0A1E
:101030002B013C01B601DD0C880B990B0E94560A6E
:10104000A50194010E940B0B9B01AC0160919901D9
:1010500070919A0180919B0190919C010E943B09A3
:101060006093990170939A0180939B0190939C01E6
:10107000B201550C880B990B0E94560AA5019401E8
:101080000E940B0B9B01AC01609195017091960140
:1010900080919701909198010E943B09609395017E
:1010A00070939601809397019093980184E291E068
:1010B0000E945C038CE291E00E945C03C090950169
:1010C000D0909601E0909701F0909801A7019601C9
:1010D000C701B6010E94780B882309F4B4CE8AE3D5
:1010E00091E0CCCE2FEF3FEF4FE75FE4C701B601B1
:1010F0000E94060B18161CF482E491E0BFCE2FEF7D
:101100003FEF4FE75FECC701B6010E94A70987FDDB
:10111000F3CF20E030E0A901C701B6010E94A70982
:1011200087FF09C06DE287E292E00E942002F7FA91
:10113000F094F7F8F0942AE037ED43EA5BE3C70157
:10114000B6010E943B094B015C010E94250A6B011C
:101150007C010E94540A9B01AC01C501B4010E94AC
:101160003A092B013C0119A28E010F5D1F4F902EF1
:10117000B12EC701B6012AE030E040E050E00E9405
:10118000120969017A01605DF80162938F01232BD6
:10119000242B252B71F7CF010E945C036EE287E2BE
:1011A00092E00E94200293E0F92EFA94FF2009F4C5
:1011B00067CE20E030E040E251E4C301B2010E947A
:1011C0000B0B2B013C010E94250A9B0140E050E0E3
:1011D00019A2092D1B2DA62EC32ED42EE52ECA0131
:1011E000B9012AE030E040E050E00E941209605D61
:1011F000F80162938F01211531054105510579F7F9
:10120000CF010E945C036A2D7C2D8D2D9E2D0E94A6
:10121000540A9B01AC01C301B2010E943A092B019F
:101220003C01C3CFA1E21A2EAA1BBB1BFD010DC0BE
:10123000AA1FBB1FEE1FFF1FA217B307E407F50786
:1012400020F0A21BB30BE40BF50B661F771F881F62
:10125000991F1A9469F760957095809590959B01F8
:10126000AC01BD01CF010895EE0FFF1F0590F49171
:10127000E02D09945058BB27AA270E9452090C94CC
:10128000CC0A0E94BE0A38F00E94C50A20F039F448
:101290009F3F19F426F40C94BB0A0EF4E095E7FB8B
:1012A0000C94B50AE92F0E94DD0A58F3BA176207B9
:1012B00073078407950720F079F4A6F50C94FF0ACC
:1012C0000EF4E0950B2EBA2FA02D0B01B901900161
:1012D0000C01CA01A0011124FF27591B99F0593FA5
:1012E00050F4503E68F11A16F040A22F232F342FED
:1012F0004427585FF3CF469537952795A795F0403B
:101300005395C9F77EF41F16BA0B620B730B840B4F
:10131000BAF09150A1F0FF0FBB1F661F771F881F07
:10132000C2F70EC0BA0F621F731F841F48F487955F
:1013300077956795B795F7959E3F08F0B0CF939551
:10134000880F08F09927EE0F9795879508950E94CA
:10135000910A08F481E008950E94C0090C94CC0A17
:101360000E94C50A58F00E94BE0A40F029F45F3F6F
:1013700029F00C94B50A51110C94000B0C94BB0A83
:101380000E94DD0A68F39923B1F3552391F3951B6D
:10139000550BBB27AA2762177307840738F09F5F96
:1013A0005F4F220F331F441FAA1FA9F335D00E2E03
:1013B0003AF0E0E832D091505040E695001CCAF770
:1013C0002BD0FE2F29D0660F771F881FBB1F261733
:1013D00037074807AB07B0E809F0BB0B802DBF010A
:1013E000FF2793585F4F3AF09E3F510578F00C94D9
:1013F000B50A0C94000B5F3FE4F3983ED4F3869556
:1014000077956795B795F7959F5FC9F7880F911DF9
:101410009695879597F90895E1E0660F771F881FE5
:10142000BB1F621773078407BA0720F0621B730B98
:10143000840BBA0BEE1F88F7E09508950E94250AE9
:101440006894B1110C94000B08950E94E50A88F08D
:101450009F5798F0B92F9927B751B0F0E1F0660F78
:10146000771F881F991F1AF0BA95C9F714C0B130B9
:1014700091F00E94FF0AB1E008950C94FF0A672FD3
:10148000782F8827B85F39F0B93FCCF386957795E8
:101490006795B395D9F73EF49095809570956195D1
:1014A0007F4F8F4F9F4F0895E89409C097FB3EF4FC
:1014B00090958095709561957F4F8F4F9F4F9923A1
:1014C000A9F0F92F96E9BB279395F695879577951F
:1014D0006795B795F111F8CFFAF4BB0F11F460FFDF
:1014E0001BC06F5F7F4F8F4F9F4F16C0882311F037
:1014F00096E911C0772321F09EE8872F762F05C04B
:10150000662371F096E8862F70E060E02AF09A95E5
:10151000660F771F881FDAF7880F9695879597F9DA
:101520000895990F0008550FAA0BE0E8FEEF161674
:101530001706E807F907C0F012161306E407F507C7
:1015400098F0621B730B840B950B39F40A2661F03B
:10155000232B242B252B21F408950A2609F4A140DE
:10156000A6958FEF811D811D089597F99F6780E8EB
:1015700070E060E008959FEF80EC089500240A94E5
:101580001616170618060906089500240A9412165E
:101590001306140605060895092E0394000C11F491
:1015A000882352F0BB0F40F4BF2B11F460FF04C03E
:1015B0006F5F7F4F8F4F9F4F089557FD9058440F97
:1015C000551F59F05F3F71F04795880F97FB991FA2
:1015D00061F09F3F79F0879508951216130614065F
:1015E000551FF2CF4695F1DF08C0161617061806EC
:1015F000991FF1CF86957105610508940895E894C7
:10160000BB2766277727CB0197F908950E94910A97
:1016100008F48FEF08950E941E0B0C94CC0A0E94D0
:10162000BE0A38F00E94C50A20F0952311F00C94F0
:10163000B50A0C94BB0A11240C94000B0E94DD0A1D
:1016400070F3959FC1F3950F50E0551F629FF00115
:10165000729FBB27F00DB11D639FAA27F00DB11D2E
:10166000AA1F649F6627B00DA11D661F829F2227B7
:10167000B00DA11D621F739FB00DA11D621F839F3E
:10168000A00D611D221F749F3327A00D611D231F14
:10169000849F600D211D822F762F6A2F11249F5762
:1016A00050409AF0F1F088234AF0EE0FFF1FBB1F65
:1016B000661F771F881F91505040A9F79E3F510524
:1016C00080F00C94B50A0C94000B5F3FE4F3983E55
:1016D000D4F3869577956795B795F795E7959F5FCE
:1016E000C1F7FE2B880F911D9695879597F9089560
:1016F0000E94910A880B990B089581E090E0F8947C
:081700000C94820BF894FFCF5A
:101708000000000020028D01B7016D02E801C6014A
:10171800DA01000000002403F7025903CB02EF02AC
:10172800DB02CC022020207C202020004779726F29
:101738005920616E676C653A20006E616E00696EB3
:0A17480066006F7666000D0A0000CF
:00000001FF
