:100000000C9458000C9480000C9480000C94800098
:100010000C9480000C9480000C9480000C94800060
:100020000C9480000C9480000C9480000C94800050
:100030000C9480000C9480000C9480000C94800040
:100040000C944B030C9480000C94BB030C9495030C
:100050000C9480000C9480000C9480000C94800020
:100060000C94ED030C948000000000002500280093
:100070002B00040404040404040402020202020229
:10008000030303030303010204081020408001025C
:1000900004081020010204081020000000080002DB
:1000A00001000003040700000000000000001B0521
:1000B00011241FBECFEFD8E0DEBFCDBF11E0A0E01E
:1000C000B1E0E4E7F7E102C005900D92A433B10777
:1000D000D9F722E0A4E3B1E001C01D92A43CB2072D
:1000E000E1F710E0C8E5D0E004C02197FE010E94CE
:1000F0006A09C735D107C9F70E9454050C94B80B9B
:100100000C94000090911A029111FCCF91E0909311
:100110001A02409319022FEF20931802109217022F
:10012000260F209316029093150290911502880FC6
:10013000892B8093150280911402813061F4109212
:100140001402809115028093BB008091BC0083FD56
:10015000F8CF85EC01C085EE8093BC0080911A0237
:100160008130E1F380911702861710F46091170235
:10017000A4EFB1E0E4EDF1E080E0861721F09D917D
:1001800091938F5FFACF0895282F3091D3013132A8
:1001900008F04AC080911A028111FCCF9091D201DF
:1001A00042E040931A02209319022FEF2093180285
:1001B0001092170230931602E2EBF1E0A4EFB1E0E7
:1001C00020E0321721F041914D932F5FFACF10922A
:1001D000150220911502990F922B90931502909180
:1001E0001402913061F410921402909115029093D0
:1001F000BB009091BC0093FDF8CF95EC01C095EE4B
:100200009093BC0090911A029230E1F39091180201
:100210009F3F79F080911802803241F0809118025E
:10022000803331F084E005C081E003C082E001C08A
:1002300083E01092B1011092D3011092B0010895A1
:1002400090E0FC01E656FF4F2491FC01EA57FF4F76
:100250003491FC01EE58FF4FE491EE23B1F12223DB
:1002600039F1233091F038F42130A9F0223001F532
:1002700084B58F7D12C0273091F02830A1F0243052
:10028000B9F4809180008F7D03C0809180008F77CA
:10029000809380000DC084B58F7784BD09C08091A4
:1002A000B0008F7703C08091B0008F7D8093B00045
:1002B000F0E0EE0FFF1FE859FF4FA591B4918FB703
:1002C000F894EC91E32BEC938FBF08950895089573
:1002D000CF92DF92EF92FF920F931F93CF93DF9312
:1002E0006C017A018B01C0E0D0E0CE15DF0581F012
:1002F000D8016D918D01D601ED91FC910190F081B5
:10030000E02DC6010995892B11F02196EECF7E01D3
:10031000C701DF91CF911F910F91FF90EF90DF9078
:10032000CF900895FC01538D448D252F30E0842F0C
:1003300090E0821B930B541710F0CF96089501970D
:100340000895FC01918D828D981761F0828DDF01F7
:10035000A80FB11D5D968C91928D9F5F9F73928FB8
:1003600090E008958FEF9FEF0895FC01918D828DAD
:10037000981731F0828DE80FF11D858D90E008957A
:100380008FEF9FEF0895FC01918D228D892F90E0D2
:10039000805C9F4F821B91098F73992708958BE191
:1003A00092E00E94C30121E0892B09F420E0822F12
:1003B0000895FC01848DDF01A80FB11DA35ABF4F22
:1003C0002C91848D90E001968F739927848FA68954
:1003D000B7892C93A089B1898C91837080648C93A8
:1003E000938D848D981306C00288F389E02D808157
:1003F0008F7D80830895EF92FF920F931F93CF9389
:10040000DF93EC0181E0888F9B8D8C8D981305C064
:10041000E889F989808185FD26C0F62E0B8D10E0D4
:100420000F5F1F4F0F731127E02E8C8DE8120CC049
:100430000FB607FCFACFE889F989808185FFF5CFEF
:10044000CE010E94D901F1CF8B8DFE01E80FF11D85
:10045000E35AFF4FF0829FB7F8940B8FEA89FB892C
:10046000808180620AC09FB7F894EE89FF8960831B
:10047000E889F98980818370806480839FBF81E0EF
:1004800090E0DF91CF911F910F91FF90EF90089531
:10049000CF93DF93EC01888D8823C9F0EA89FB892B
:1004A000808185FD05C0A889B9898C9186FD0FC022
:1004B0000FB607FCF5CF808185FFF2CFA889B989F7
:1004C0008C9185FFEDCFCE010E94D901E7CFDF915E
:1004D000CF91089580E090E0892B29F00E94CF0110
:1004E00081110C940000089585ED8093BC008091EB
:1004F000BC0084FDFCCF10921A0208954091540173
:10050000262F30E0240F311D21323105DCF42091FB
:100510001A022430C9F4FC0180E090E0861758F4F8
:10052000309154012191DC01AC5CBE4FA30FB11D91
:100530002C930196F3CF80915401680F609354017E
:1005400080E0089581E0089582E008950895E091A3
:100550007E0180917D01E81730F4F0E0EC52FE4F0F
:10056000808190E008958FEF9FEF089590917E0134
:1005700080917D01981750F4E92FF0E0EC52FE4F86
:10058000208130E09F5F90937E0102C02FEF3FEF0C
:10059000C901089580917D0190E020917E01821B28
:1005A00091090895CF92DF92EF92FF920F931F93DC
:1005B000CF93DF937C01CB018A012091B0012223EC
:1005C00089F0EB016B01C40ED51ECC15DD0569F079
:1005D0006991D701ED91FC910190F081E02DC70167
:1005E0000995F3CF642F0E947E02C801DF91CF915D
:1005F0001F910F91FF90EF90DF90CF900895CF93D0
:10060000DF931F92CDB7DEB769832091B00122231B
:10061000D1F02091D301203240F021E030E0FC0104
:100620003383228380E090E015C08091B101E82FF0
:10063000F0E0EE54FE4F998190838F5F8093B1017B
:100640008093D30105C061E0CE0101960E947E0235
:1006500081E090E00F90DF91CF910895682F88EBB3
:1006600092E00C94FF02089580E090E008950097D6
:1006700069F0FC0101900020E9F73197AF01481BB8
:10068000590BBC018BE192E00C94680180E090E092
:1006900008950E94B30B1F920F920FB60F92112470
:1006A0002F933F938F939F93AF93BF938091AC0110
:1006B0009091AD01A091AE01B091AF013091AB012D
:1006C00023E0230F2D3720F40196A11DB11D05C095
:1006D00026E8230F0296A11DB11D2093AB01809344
:1006E000AC019093AD01A093AE01B093AF018091A6
:1006F000A7019091A801A091A901B091AA0101962A
:10070000A11DB11D8093A7019093A801A093A901F9
:10071000B093AA01BF91AF919F918F913F912F917B
:100720000F900FBE0F901F9018951F920F920FB64B
:100730000F9211242F933F934F935F936F937F9367
:100740008F939F93AF93BF93EF93FF938BE192E0CF
:100750000E94D901FF91EF91BF91AF919F918F912D
:100760007F916F915F914F913F912F910F900FBEAD
:100770000F901F9018951F920F920FB60F92112491
:100780002F938F939F93EF93FF93E0912B02F09120
:100790002C028081E0913102F091320282FD12C080
:1007A0009081809134028F5F8F7320913502821780
:1007B00051F0E0913402F0E0E55EFD4F958F8093BB
:1007C000340201C08081FF91EF919F918F912F9111
:1007D0000F900FBE0F901F9018951F920F920FB69B
:1007E0000F9211242F933F934F935F936F937F93B7
:1007F0008F939F93AF93BF93EF93FF938091B90033
:10080000887F803609F49CC068F5883209F45BC0A3
:1008100090F4803109F454C038F4882309F4F6C008
:10082000883009F44DC0F6C0883109F44CC08032DC
:1008300009F45DC0EFC0803409F468C048F4803327
:1008400009F455C0883309F0E5C080931802D8C078
:10085000803509F44FC0883509F45DC0883409F04B
:10086000D9C0D6C0883909F4C7C0A8F4883709F4BC
:1008700067C038F4883609F463C0803709F460C073
:10088000C9C0883809F4B8C0803909F45FC080381D
:1008900009F0C0C05BC0803B09F486C038F4803AE0
:1008A00009F466C0883A09F47FC0B4C0803C09F4FA
:1008B000A7C0883C09F4A4C0883B09F48AC0AAC038
:1008C0008091150210C0909117028091160298171E
:1008D00070F5E091170281E08E0F80931702F0E02F
:1008E000EC50FE4F80818093BB0085EC86C08093E6
:1008F00018028EC0E091170281E08E0F80931702DC
:100900008091BB00F0E0EC50FE4F80839091170285
:10091000809116026EC0E091170281E08E0F8093E5
:1009200017028091BB00F0E0EC50FE4F8083809175
:10093000190281116DC081E08093140284EA61C0C4
:1009400083E080931A0210927601CFCF80917601D6
:10095000803208F051C0E091760181E08E0F8093E3
:1009600076018091BB00F0E0EA5AFE4F8083BDCF54
:1009700085EC8093BC0010921A028091760180323F
:1009800030F4E0917601F0E0EA5AFE4F1082609177
:10099000760170E0E0917701F091780186E591E0D1
:1009A00009951092760136C084E080931A02109265
:1009B000550110925401E0917901F0917A01099565
:1009C00080915401811105C081E0809354011092FF
:1009D0003401E091550181E08E0F80935501F0E0E4
:1009E000EC5CFE4F80818093BB009091550180911B
:1009F0005401981708F479CF85E88093BC000AC0A9
:100A000085EC8093BC0010921A0204C01092180268
:100A10000E947402FF91EF91BF91AF919F918F91CE
:100A20007F916F915F914F913F912F910F900FBEEA
:100A30000F901F901895EBE1F2E01382128288EE7E
:100A400093E0A0E0B0E084839583A683B78324E09D
:100A500031E03183208325EC30E03587248724EC96
:100A600030E03787268720EC30E0318B208B21EC7B
:100A700030E0338B228B22EC30E0358B248B26EC5C
:100A800030E0378B268B118E128E138E148EE8EB8E
:100A9000F2E01382128284839583A683B78386E172
:100AA00091E0918380830895CF93DF93CDB7DEB734
:100AB000AF970FB6F894DEBF0FBECDBF789484B564
:100AC000826084BD84B5816084BD85B5826085BD4A
:100AD00085B5816085BD80916E00816080936E00D8
:100AE00010928100809181008260809381008091CA
:100AF000810081608093810080918000816080937B
:100B000080008091B10084608093B1008091B0003A
:100B100081608093B00080917A00846080937A0035
:100B200080917A00826080937A0080917A0081605F
:100B300080937A0080917A00806880937A00109286
:100B4000C10010927E0110927D011092B1011092AD
:100B5000D30110921A0211E010931902109214029C
:100B600082E10E94200183E10E9420018091B9006E
:100B70008E7F8093B9008091B9008D7F8093B900FA
:100B800088E48093B80085E48093BC0086E691E019
:100B900090937A018093790187E691E090937801B0
:100BA000809377011093B00188E68093D201109270
:100BB000B1011092D3018BE690E00E942E0380E0F9
:100BC00090E00E942E0381E00E94C4001093B001C7
:100BD0001092B1011092D3018BE190E00E942E039C
:100BE00080E190E00E942E0381E00E94C400E09129
:100BF0002B02F0912C0282E08083E0912702F09199
:100C000028021082E0912902F0912A028FEC808361
:100C100010923302E0912F02F091300286E080833F
:100C2000E0912D02F0912E02808180618083E0911D
:100C30002D02F0912E02808188608083E0912D0248
:100C4000F0912E02808180688083E0912D02F091E6
:100C50002E0280818F7D80832FB7F8946091AC0144
:100C60007091AD018091AE019091AF012FBF0E94B4
:100C70008A0A6093A3017093A4018093A5019093C5
:100C8000A60180917B0190917C01892B11F008E6EF
:100C90001BC11BA21AA218E621E02093B0011093F9
:100CA000D2011092B1011092D30183E490E00E942E
:100CB0002E0380E00E94C40041E066E088E60E94C6
:100CC000820010927E0180937D0188EB92E00E9469
:100CD000B602082F88EB92E00E94B6020FA31EA274
:100CE0008EA09FA0882A992A90929A0180929901B9
:100CF00088EB92E00E94B602082F88EB92E00E94F7
:100D0000B60209A718A6A8A4B9A4A82AB92AB0921D
:100D10009801A092970188EB92E00E94B602082FFA
:100D200088EB92E00E94B6027C01B401990C880B1A
:100D3000990B0E948C0A23E333E343E052E40E94C0
:100D4000E2092091930130919401409195015091D5
:100D500096010E9471092B013C01609393017093ED
:100D600094018093950190939601B501BB0C880B7B
:100D7000990B0E948C0A23E333E343E052E40E9480
:100D8000E20920918F0130919001409191015091A1
:100D900092010E9471094B015C0160938F01709375
:100DA000900180939101909392010BA71AA66AA5D6
:100DB0007BA56E297F29072E000C880B990B0E94BA
:100DC0008C0A23E333E343E052E40E94E2092091DA
:100DD0008B0130918C0140918D0150918E010E94C8
:100DE00071096B017C0160938B0170938C0180937E
:100DF0008D0190938E018AA19BA1873C9105B1F54D
:100E000020E030E048E453E4C301B2010E94E2096B
:100E10006093930170939401809395019093960150
:100E200020E030E048E453E4C501B4010E94E20947
:100E300060938F0170939001809391019093920140
:100E400020E030E048E453E4C701B6010E94E20923
:100E500060938B0170938C0180938D0190938E0130
:100E6000E1E0F0E0F0937C01E0937B012AA13BA15B
:100E70002F5F3F4F3BA32AA3283C310509F00CCF3D
:100E800006CF26013701E89477F82FEF3FEF4FE7C1
:100E90005FE7C301B2010E94AE0B81115CC12FEF6D
:100EA0003FEF4FE75FE7C301B2010E94DD0918166B
:100EB0000CF051C188E291E00E94370380E391E099
:100EC0000E9437030E946A028091A3019091A401BD
:100ED000A091A501B091A60180939F019093A001DC
:100EE000A093A101B093A2012FB7F8946091AC0137
:100EF0007091AD018091AE019091AF012FBF0E9422
:100F00008A0A6093A3017093A4018093A501909332
:100F1000A60120919F013091A0014091A101509123
:100F2000A2010E94700920E030E04AE754E40E94E8
:100F3000E2096B017C0160939B0170939C0180939B
:100F40009D0190939E0131E03093B0010093D20156
:100F50001092B1011092D30183E490E00E942E031D
:100F600080E00E94C40041E066E088E60E948200C2
:100F700010927E0180937D0188EB92E00E94B60280
:100F8000182F88EB92E00E94B602312E212C4101ED
:100F9000882A992A88EB92E00E94B602182F88EBE3
:100FA00092E00E94B6021DA71CA6ACA4BDA4A82A6C
:100FB000B92A88EB92E00E94B602782E88EB92E084
:100FC0000E94B6022C01B401990C880B990B0E9467
:100FD0008C0A23E333E343E052E40E94E2092091C8
:100FE00093013091940140919501509196010E9496
:100FF00070090E94540A6AA37BA38CA39DA38AA1B3
:101000009BA190939A0180939901B501BB0C880B29
:10101000990B0E948C0A23E333E343E052E40E94DD
:10102000E20920918F0130919001409191015091FE
:1010300092010E9470090E94540A4B015C01709356
:101040009801609397017FA61EA66EA57FA56429CF
:101050007529072E000C880B990B0E948C0A23E33C
:1010600033E343E052E40E94E20920918B01309186
:101070008C0140918D0150918E010E9470090E9457
:10108000540A2B013C01EAA1FBA1BF01FF0F880B11
:10109000990B0E948C0AA70196010E94410B9B01AB
:1010A000AC016091870170918801809189019091D4
:1010B0008A010E947109609387017093880180936F
:1010C000890190938A01B401990C880B990B0E94B5
:1010D0008C0AA70196010E94410B9B01AC01609113
:1010E00083017091840180918501909186010E9415
:1010F00071096093830170938401809385019093BB
:101100008601B201550C880B990B0E948C0AA7012D
:1011100096010E94410B20917F0130918001409106
:101120008101509182010E9471096B017C014B0188
:101130005C0160937F0170938001809381019093A3
:1011400082019B01AC010E94AE0B882309F499CE69
:1011500084E291E0B1CE2FEF3FEF4FE75FE4C701AC
:10116000B6010E943C0B18161CF48CE291E0A4CE50
:101170002FEF3FEF4FE75FECC701B6010E94DD099B
:1011800087FDF3CF20E030E0A901C701B6010E943E
:10119000DD0987FF0BC06DE28BE192E00E94FB014D
:1011A00046015701B7FAB094B7F8B0942AE037ED8A
:1011B00043EA5BE3C501B4010E9471096B017C0144
:1011C0000E945B0A4B015C010E948A0A9B01AC01F0
:1011D000C701B6010E9470092B013C0119A27E01D2
:1011E000F1E2EF0EF11CDE2CCF2CC501B4012AE098
:1011F00030E040E050E00E94480949015A01605D3A
:10120000F70162937F01232B242B252B71F7CF014C
:101210000E9437036EE28BE192E00E94FB0113E033
:10122000115009F44BCE20E030E040E251E4C3011C
:10123000B2010E94410B4B015C010E945B0A9B01C1
:1012400040E050E019A2ED2CFC2C2B013A01CA0120
:10125000B9012AE030E040E050E00E944809605DBA
:10126000F70162937F01211531054105510579F799
:10127000CF010E943703B201C3010E948A0A9B0179
:10128000AC01C501B4010E9470092B013C01C8CF1B
:10129000A1E21A2EAA1BBB1BFD010DC0AA1FBB1F7A
:1012A000EE1FFF1FA217B307E407F50720F0A21BEC
:1012B000B30BE40BF50B661F771F881F991F1A9459
:1012C00069F760957095809590959B01AC01BD0183
:1012D000CF010895EE0FFF1F0590F491E02D0994C2
:1012E0005058BB27AA270E9488090C94020B0E9421
:1012F000F40A38F00E94FB0A20F039F49F3F19F4F9
:1013000026F40C94F10A0EF4E095E7FB0C94EB0A3A
:10131000E92F0E94130B58F3BA176207730784076B
:10132000950720F079F4A6F50C94350B0EF4E095B2
:101330000B2EBA2FA02D0B01B90190010C01CA018F
:10134000A0011124FF27591B99F0593F50F4503E3A
:1013500068F11A16F040A22F232F342F4427585F2C
:10136000F3CF469537952795A795F0405395C9F744
:101370007EF41F16BA0B620B730B840BBAF09150FC
:10138000A1F0FF0FBB1F661F771F881FC2F70EC09B
:10139000BA0F621F731F841F48F48795779567956E
:1013A000B795F7959E3F08F0B0CF9395880F08F05A
:1013B0009927EE0F9795879508950E94C70A08F41C
:1013C00081E008950E94F6090C94020B0E94FB0A2A
:1013D00058F00E94F40A40F029F45F3F29F00C9481
:1013E000EB0A51110C94360B0C94F10A0E94130B6A
:1013F00068F39923B1F3552391F3951B550BBB2744
:10140000AA2762177307840738F09F5F5F4F220F88
:10141000331F441FAA1FA9F335D00E2E3AF0E0E87F
:1014200032D091505040E695001CCAF72BD0FE2FC9
:1014300029D0660F771F881FBB1F2617370748075D
:10144000AB07B0E809F0BB0B802DBF01FF27935815
:101450005F4F3AF09E3F510578F00C94EB0A0C94E4
:10146000360B5F3FE4F3983ED4F386957795679506
:10147000B795F7959F5FC9F7880F911D969587954A
:1014800097F90895E1E0660F771F881FBB1F621769
:1014900073078407BA0720F0621B730B840BBA0B27
:1014A000EE1F88F7E09508950E945B0A6894B111D9
:1014B0000C94360B08950E941B0B88F09F5798F0F0
:1014C000B92F9927B751B0F0E1F0660F771F881F49
:1014D000991F1AF0BA95C9F714C0B13091F00E9463
:1014E000350BB1E008950C94350B672F782F8827C2
:1014F000B85F39F0B93FCCF3869577956795B3958A
:10150000D9F73EF490958095709561957F4F8F4FF8
:101510009F4F0895E89409C097FB3EF490958095FD
:10152000709561957F4F8F4F9F4F9923A9F0F92FA9
:1015300096E9BB279395F695879577956795B79527
:10154000F111F8CFFAF4BB0F11F460FF1BC06F5F0D
:101550007F4F8F4F9F4F16C0882311F096E911C01F
:10156000772321F09EE8872F762F05C0662371F040
:1015700096E8862F70E060E02AF09A95660F771F54
:10158000881FDAF7880F9695879597F90895990F30
:101590000008550FAA0BE0E8FEEF16161706E8073D
:1015A000F907C0F012161306E407F50798F0621B5E
:1015B000730B840B950B39F40A2661F0232B242B33
:1015C000252B21F408950A2609F4A140A6958FEF52
:1015D000811D811D089597F99F6780E870E060E0A4
:1015E00008959FEF80EC089500240A9416161706BC
:1015F00018060906089500240A9412161306140604
:1016000005060895092E0394000C11F4882352F066
:10161000BB0F40F4BF2B11F460FF04C06F5F7F4F1E
:101620008F4F9F4F089557FD9058440F551F59F005
:101630005F3F71F04795880F97FB991F61F09F3FBF
:1016400079F087950895121613061406551FF2CFE8
:101650004695F1DF08C0161617061806991FF1CF38
:1016600086957105610508940895E894BB2766275F
:101670007727CB0197F908950E94C70A08F48FEFE6
:1016800008950E94540B0C94020B0E94F40A38F047
:101690000E94FB0A20F0952311F00C94EB0A0C94A5
:1016A000F10A11240C94360B0E94130B70F3959FD2
:1016B000C1F3950F50E0551F629FF001729FBB2749
:1016C000F00DB11D639FAA27F00DB11DAA1F649FE5
:1016D0006627B00DA11D661F829F2227B00DA11D98
:1016E000621F739FB00DA11D621F839FA00D611D1E
:1016F000221F749F3327A00D611D231F849F600D3F
:10170000211D822F762F6A2F11249F5750409AF067
:10171000F1F088234AF0EE0FFF1FBB1F661F771FF3
:10172000881F91505040A9F79E3F510580F00C94BE
:10173000EB0A0C94360B5F3FE4F3983ED4F38695A6
:1017400077956795B795F795E7959F5FC1F7FE2B5E
:10175000880F911D9695879597F908950E94C70A5D
:10176000880B990B089581E090E0F8940C94B80BE5
:04177000F894FFCF1B
:1017740000000000FB01680192014802C301A101BD
:10178400B50100000000FF02D2023403A602CA021F
:10179400B602A7026E616E00696E66006F7666001F
:0417A4000D0A00002A
:00000001FF
